{
  "accessed_utc": "2026-06-04T17:46:16.140227+00:00",
  "source": "safe-transaction-mainnet.safe.global",
  "safes": {
    "admin_safe": {
      "address": "0xABdd8c8eE69e5F5180eb9352AEFFC5CeeAD65e96",
      "url": "https://safe-transaction-mainnet.safe.global/api/v1/safes/0xABdd8c8eE69e5F5180eb9352AEFFC5CeeAD65e96/multisig-transactions/?executed=false&limit=10",
      "count": 2,
      "results": [
        {
          "safe": "0xABdd8c8eE69e5F5180eb9352AEFFC5CeeAD65e96",
          "to": "0x38EEb52F0771140d10c4E9A9a72349A329Fe8a6A",
          "value": "0",
          "data": "0x794a40a8000000000000000000000000f9862efc1704ac05e687f66e5cd8c130e5663ce20000000000000000000000000000000000000000000089a49213386742400000",
          "operation": 0,
          "gasToken": "0x0000000000000000000000000000000000000000",
          "safeTxGas": 0,
          "baseGas": 0,
          "gasPrice": "0",
          "refundReceiver": "0x0000000000000000000000000000000000000000",
          "nonce": 25,
          "executionDate": null,
          "submissionDate": "2026-06-04T01:26:39.698793Z",
          "modified": "2026-06-04T02:52:11.270810Z",
          "blockNumber": null,
          "transactionHash": null,
          "safeTxHash": "0x5e721d677ddd05d3a6234cd3ce9f54bd4d48d827017443f2af645effaddd5d59",
          "proposer": "0xD6bB3f9718D4f30ed2851c713275dEf7529D1411",
          "proposedByDelegate": null,
          "executor": null,
          "isExecuted": false,
          "isSuccessful": null,
          "ethGasPrice": null,
          "maxFeePerGas": null,
          "maxPriorityFeePerGas": null,
          "gasUsed": null,
          "fee": null,
          "payment": null,
          "origin": "{\"url\": \"https://apps-portal.safe.global/tx-builder/\", \"name\": \"Transaction Builder\", \"note\": null}",
          "dataDecoded": null,
          "confirmationsRequired": 4,
          "confirmations": [
            {
              "owner": "0xD6bB3f9718D4f30ed2851c713275dEf7529D1411",
              "submissionDate": "2026-06-04T01:26:39.729286Z",
              "transactionHash": null,
              "signature": "0x0b9af9b3dc526ed9541eaec9aa04664128e392ea60489903d4db5b3501537bff16891af405d580802b1de1b582d3354dbe92eb94f2b1469e7be9dfc791981c721b",
              "signatureType": "EOA"
            },
            {
              "owner": "0xB98cD8C868cf00cEA934977dBE4AC090E808fb87",
              "submissionDate": "2026-06-04T01:27:36.001045Z",
              "transactionHash": null,
              "signature": "0x3dd3995affd8e2466af3221e9b677a79da979dc03b6c2f08af46ebd86e97a93c4639b496f1658f5afa0213b1cdb8c99c11e21615f5a4004d7441e1796f08dfde1b",
              "signatureType": "EOA"
            },
            {
              "owner": "0x5db416BcFc1a8b5b921f55C1E078d1F39194e99F",
              "submissionDate": "2026-06-04T01:36:08.875933Z",
              "transactionHash": null,
              "signature": "0xb712e35fae888b488793a0a5fb5d53d04b29443a5c4315526a1a04057790c50760e35ca939db29f645cb1ac2bc5a60c8b944f698419db82d89d6fac0565bb11e1c",
              "signatureType": "EOA"
            },
            {
              "owner": "0xd66a0Fc924fAb7476D35aFe5941856ef76BA0839",
              "submissionDate": "2026-06-04T02:52:11.270810Z",
              "transactionHash": null,
              "signature": "0x66a9527b6ebe71c1b121d70add49780a247a074ec40a122b3de60b7ec63f5c4501f0f8bc735371d1607c4c3c42e31590df6e591d7d2a052db9c637644afccdbf1b",
              "signatureType": "EOA"
            }
          ],
          "trusted": true,
          "signatures": null
        },
        {
          "safe": "0xABdd8c8eE69e5F5180eb9352AEFFC5CeeAD65e96",
          "to": "0x9641d764fc13c8B624c04430C7356C1C7C8102e2",
          "value": "0",
          "data": "0x8d80ff0a0000000000000000000000000000000000000000000000000000000000000020000000000000000000000000000000000000000000000000000000000000091a00e167330e2eac88666de253e9607c6d9ae0ca2824000000000000000000000000000000000000000000000000000000000000000000000000000000000000000000000000000000000000000000000000000000a408d6122d000000000000000000000000823210eb6390b88e2b8ad7152df5d8f30b8fd3050000000000000000000000000000000000000000000000000000000000000060000000000000000000000000000000000000000000000000000000000000001500000000000000000000000000000000000000000000000000000000000000018456cb590000000000000000000000000000000000000000000000000000000000e167330e2eac88666de253e9607c6d9ae0ca2824000000000000000000000000000000000000000000000000000000000000000000000000000000000000000000000000000000000000000000000000000000a408d6122d000000000000000000000000823210eb6390b88e2b8ad7152df5d8f30b8fd3050000000000000000000000000000000000000000000000000000000000000060000000000000000000000000000000000000000000000000000000000000001600000000000000000000000000000000000000000000000000000000000000013f4ba83a0000000000000000000000000000000000000000000000000000000000e167330e2eac88666de253e9607c6d9ae0ca2824000000000000000000000000000000000000000000000000000000000000000000000000000000000000000000000000000000000000000000000000000000c408d6122d000000000000000000000000823210eb6390b88e2b8ad7152df5d8f30b8fd3050000000000000000000000000000000000000000000000000000000000000060000000000000000000000000000000000000000000000000000000000000001900000000000000000000000000000000000000000000000000000000000000027a9e5e4b000000000000000000000000000000000000000000000000000000004f1ef2860000000000000000000000000000000000000000000000000000000000e167330e2eac88666de253e9607c6d9ae0ca2824000000000000000000000000000000000000000000000000000000000000000000000000000000000000000000000000000000000000000000000000000000a408d6122d000000000000000000000000823210eb6390b88e2b8ad7152df5d8f30b8fd305000000000000000000000000000000000000000000000000000000000000006000000000000000000000000000000000000000000000000000000000000000170000000000000000000000000000000000000000000000000000000000000001c01096f00000000000000000000000000000000000000000000000000000000000e167330e2eac88666de253e9607c6d9ae0ca2824000000000000000000000000000000000000000000000000000000000000000000000000000000000000000000000000000000000000000000000000000000a408d6122d0000000000000000000000002037a5eb67aa9b2fbf50042b724d8c4db80f23b40000000000000000000000000000000000000000000000000000000000000060000000000000000000000000000000000000000000000000000000000000001500000000000000000000000000000000000000000000000000000000000000018456cb590000000000000000000000000000000000000000000000000000000000e167330e2eac88666de253e9607c6d9ae0ca2824000000000000000000000000000000000000000000000000000000000000000000000000000000000000000000000000000000000000000000000000000000a408d6122d0000000000000000000000002037a5eb67aa9b2fbf50042b724d8c4db80f23b40000000000000000000000000000000000000000000000000000000000000060000000000000000000000000000000000000000000000000000000000000001600000000000000000000000000000000000000000000000000000000000000013f4ba83a0000000000000000000000000000000000000000000000000000000000e167330e2eac88666de253e9607c6d9ae0ca2824000000000000000000000000000000000000000000000000000000000000000000000000000000000000000000000000000000000000000000000000000000a408d6122d0000000000000000000000002037a5eb67aa9b2fbf50042b724d8c4db80f23b40000000000000000000000000000000000000000000000000000000000000060000000000000000000000000000000000000000000000000000000000000001900000000000000000000000000000000000000000000000000000000000000017a9e5e4b0000000000000000000000000000000000000000000000000000000000e167330e2eac88666de253e9607c6d9ae0ca2824000000000000000000000000000000000000000000000000000000000000000000000000000000000000000000000000000000000000000000000000000000a408d6122d0000000000000000000000002037a5eb67aa9b2fbf50042b724d8c4db80f23b40000000000000000000000000000000000000000000000000000000000000060000000000000000000000000000000000000000000000000000000000000001800000000000000000000000000000000000000000000000000000000000000014f1ef2860000000000000000000000000000000000000000000000000000000000e167330e2eac88666de253e9607c6d9ae0ca282400000000000000000000000000000000000000000000000000000000000000000000000000000000000000000000000000000000000000000000000000000044d22b5989000000000000000000000000823210eb6390b88e2b8ad7152df5d8f30b8fd305000000000000000000000000000000000000000000000000000000000003f48000e167330e2eac88666de253e9607c6d9ae0ca282400000000000000000000000000000000000000000000000000000000000000000000000000000000000000000000000000000000000000000000000000000044d22b59890000000000000000000000002037a5eb67aa9b2fbf50042b724d8c4db80f23b4000000000000000000000000000000000000000000000000000000000003f480000000000000",
          "operation": 1,
          "gasToken": "0x0000000000000000000000000000000000000000",
          "safeTxGas": 0,
          "baseGas": 0,
          "gasPrice": "0",
          "refundReceiver": "0x0000000000000000000000000000000000000000",
          "nonce": 20,
          "executionDate": null,
          "submissionDate": "2026-05-01T02:36:01.250002Z",
          "modified": "2026-05-01T02:40:42.784944Z",
          "blockNumber": null,
          "transactionHash": null,
          "safeTxHash": "0x36ef251d2f5f97a463930345ae4bd007e7a1b462b27a1b84b1d10fd21720e500",
          "proposer": "0xD6bB3f9718D4f30ed2851c713275dEf7529D1411",
          "proposedByDelegate": null,
          "executor": null,
          "isExecuted": false,
          "isSuccessful": null,
          "ethGasPrice": null,
          "maxFeePerGas": null,
          "maxPriorityFeePerGas": null,
          "gasUsed": null,
          "fee": null,
          "payment": null,
          "origin": "{\"url\": \"https://apps-portal.safe.global/tx-builder/\", \"name\": \"Transaction Builder\", \"note\": null}",
          "dataDecoded": {
            "method": "multiSend",
            "parameters": [
              {
                "name": "transactions",
                "type": "bytes",
                "value": "0x00e167330e2eac88666de253e9607c6d9ae0ca2824000000000000000000000000000000000000000000000000000000000000000000000000000000000000000000000000000000000000000000000000000000a408d6122d000000000000000000000000823210eb6390b88e2b8ad7152df5d8f30b8fd3050000000000000000000000000000000000000000000000000000000000000060000000000000000000000000000000000000000000000000000000000000001500000000000000000000000000000000000000000000000000000000000000018456cb590000000000000000000000000000000000000000000000000000000000e167330e2eac88666de253e9607c6d9ae0ca2824000000000000000000000000000000000000000000000000000000000000000000000000000000000000000000000000000000000000000000000000000000a408d6122d000000000000000000000000823210eb6390b88e2b8ad7152df5d8f30b8fd3050000000000000000000000000000000000000000000000000000000000000060000000000000000000000000000000000000000000000000000000000000001600000000000000000000000000000000000000000000000000000000000000013f4ba83a0000000000000000000000000000000000000000000000000000000000e167330e2eac88666de253e9607c6d9ae0ca2824000000000000000000000000000000000000000000000000000000000000000000000000000000000000000000000000000000000000000000000000000000c408d6122d000000000000000000000000823210eb6390b88e2b8ad7152df5d8f30b8fd3050000000000000000000000000000000000000000000000000000000000000060000000000000000000000000000000000000000000000000000000000000001900000000000000000000000000000000000000000000000000000000000000027a9e5e4b000000000000000000000000000000000000000000000000000000004f1ef2860000000000000000000000000000000000000000000000000000000000e167330e2eac88666de253e9607c6d9ae0ca2824000000000000000000000000000000000000000000000000000000000000000000000000000000000000000000000000000000000000000000000000000000a408d6122d000000000000000000000000823210eb6390b88e2b8ad7152df5d8f30b8fd305000000000000000000000000000000000000000000000000000000000000006000000000000000000000000000000000000000000000000000000000000000170000000000000000000000000000000000000000000000000000000000000001c01096f00000000000000000000000000000000000000000000000000000000000e167330e2eac88666de253e9607c6d9ae0ca2824000000000000000000000000000000000000000000000000000000000000000000000000000000000000000000000000000000000000000000000000000000a408d6122d0000000000000000000000002037a5eb67aa9b2fbf50042b724d8c4db80f23b40000000000000000000000000000000000000000000000000000000000000060000000000000000000000000000000000000000000000000000000000000001500000000000000000000000000000000000000000000000000000000000000018456cb590000000000000000000000000000000000000000000000000000000000e167330e2eac88666de253e9607c6d9ae0ca2824000000000000000000000000000000000000000000000000000000000000000000000000000000000000000000000000000000000000000000000000000000a408d6122d0000000000000000000000002037a5eb67aa9b2fbf50042b724d8c4db80f23b40000000000000000000000000000000000000000000000000000000000000060000000000000000000000000000000000000000000000000000000000000001600000000000000000000000000000000000000000000000000000000000000013f4ba83a0000000000000000000000000000000000000000000000000000000000e167330e2eac88666de253e9607c6d9ae0ca2824000000000000000000000000000000000000000000000000000000000000000000000000000000000000000000000000000000000000000000000000000000a408d6122d0000000000000000000000002037a5eb67aa9b2fbf50042b724d8c4db80f23b40000000000000000000000000000000000000000000000000000000000000060000000000000000000000000000000000000000000000000000000000000001900000000000000000000000000000000000000000000000000000000000000017a9e5e4b0000000000000000000000000000000000000000000000000000000000e167330e2eac88666de253e9607c6d9ae0ca2824000000000000000000000000000000000000000000000000000000000000000000000000000000000000000000000000000000000000000000000000000000a408d6122d0000000000000000000000002037a5eb67aa9b2fbf50042b724d8c4db80f23b40000000000000000000000000000000000000000000000000000000000000060000000000000000000000000000000000000000000000000000000000000001800000000000000000000000000000000000000000000000000000000000000014f1ef2860000000000000000000000000000000000000000000000000000000000e167330e2eac88666de253e9607c6d9ae0ca282400000000000000000000000000000000000000000000000000000000000000000000000000000000000000000000000000000000000000000000000000000044d22b5989000000000000000000000000823210eb6390b88e2b8ad7152df5d8f30b8fd305000000000000000000000000000000000000000000000000000000000003f48000e167330e2eac88666de253e9607c6d9ae0ca282400000000000000000000000000000000000000000000000000000000000000000000000000000000000000000000000000000000000000000000000000000044d22b59890000000000000000000000002037a5eb67aa9b2fbf50042b724d8c4db80f23b4000000000000000000000000000000000000000000000000000000000003f480",
                "valueDecoded": [
                  {
                    "operation": 0,
                    "to": "0xe167330E2Eac88666de253e9607C6d9ae0cA2824",
                    "value": "0",
                    "data": "0x08d6122d000000000000000000000000823210eb6390b88e2b8ad7152df5d8f30b8fd3050000000000000000000000000000000000000000000000000000000000000060000000000000000000000000000000000000000000000000000000000000001500000000000000000000000000000000000000000000000000000000000000018456cb5900000000000000000000000000000000000000000000000000000000",
                    "dataDecoded": {
                      "method": "setTargetFunctionRole",
                      "parameters": [
                        {
                          "name": "target",
                          "type": "address",
                          "value": "0x823210Eb6390B88e2b8ad7152DF5D8F30B8FD305"
                        },
                        {
                          "name": "selectors",
                          "type": "bytes4[]",
                          "value": [
                            "0x8456cb59"
                          ]
                        },
                        {
                          "name": "roleId",
                          "type": "uint64",
                          "value": "21"
                        }
                      ]
                    }
                  },
                  {
                    "operation": 0,
                    "to": "0xe167330E2Eac88666de253e9607C6d9ae0cA2824",
                    "value": "0",
                    "data": "0x08d6122d000000000000000000000000823210eb6390b88e2b8ad7152df5d8f30b8fd3050000000000000000000000000000000000000000000000000000000000000060000000000000000000000000000000000000000000000000000000000000001600000000000000000000000000000000000000000000000000000000000000013f4ba83a00000000000000000000000000000000000000000000000000000000",
                    "dataDecoded": {
                      "method": "setTargetFunctionRole",
                      "parameters": [
                        {
                          "name": "target",
                          "type": "address",
                          "value": "0x823210Eb6390B88e2b8ad7152DF5D8F30B8FD305"
                        },
                        {
                          "name": "selectors",
                          "type": "bytes4[]",
                          "value": [
                            "0x3f4ba83a"
                          ]
                        },
                        {
                          "name": "roleId",
                          "type": "uint64",
                          "value": "22"
                        }
                      ]
                    }
                  },
                  {
                    "operation": 0,
                    "to": "0xe167330E2Eac88666de253e9607C6d9ae0cA2824",
                    "value": "0",
                    "data": "0x08d6122d000000000000000000000000823210eb6390b88e2b8ad7152df5d8f30b8fd3050000000000000000000000000000000000000000000000000000000000000060000000000000000000000000000000000000000000000000000000000000001900000000000000000000000000000000000000000000000000000000000000027a9e5e4b000000000000000000000000000000000000000000000000000000004f1ef28600000000000000000000000000000000000000000000000000000000",
                    "dataDecoded": {
                      "method": "setTargetFunctionRole",
                      "parameters": [
                        {
                          "name": "target",
                          "type": "address",
                          "value": "0x823210Eb6390B88e2b8ad7152DF5D8F30B8FD305"
                        },
                        {
                          "name": "selectors",
                          "type": "bytes4[]",
                          "value": [
                            "0x7a9e5e4b",
                            "0x4f1ef286"
                          ]
                        },
                        {
                          "name": "roleId",
                          "type": "uint64",
                          "value": "25"
                        }
                      ]
                    }
                  },
                  {
                    "operation": 0,
                    "to": "0xe167330E2Eac88666de253e9607C6d9ae0cA2824",
                    "value": "0",
                    "data": "0x08d6122d000000000000000000000000823210eb6390b88e2b8ad7152df5d8f30b8fd305000000000000000000000000000000000000000000000000000000000000006000000000000000000000000000000000000000000000000000000000000000170000000000000000000000000000000000000000000000000000000000000001c01096f000000000000000000000000000000000000000000000000000000000",
                    "dataDecoded": {
                      "method": "setTargetFunctionRole",
                      "parameters": [
                        {
                          "name": "target",
                          "type": "address",
                          "value": "0x823210Eb6390B88e2b8ad7152DF5D8F30B8FD305"
                        },
                        {
                          "name": "selectors",
                          "type": "bytes4[]",
                          "value": [
                            "0xc01096f0"
                          ]
                        },
                        {
                          "name": "roleId",
                          "type": "uint64",
                          "value": "23"
                        }
                      ]
                    }
                  },
                  {
                    "operation": 0,
                    "to": "0xe167330E2Eac88666de253e9607C6d9ae0cA2824",
                    "value": "0",
                    "data": "0x08d6122d0000000000000000000000002037a5eb67aa9b2fbf50042b724d8c4db80f23b40000000000000000000000000000000000000000000000000000000000000060000000000000000000000000000000000000000000000000000000000000001500000000000000000000000000000000000000000000000000000000000000018456cb5900000000000000000000000000000000000000000000000000000000",
                    "dataDecoded": {
                      "method": "setTargetFunctionRole",
                      "parameters": [
                        {
                          "name": "target",
                          "type": "address",
                          "value": "0x2037a5Eb67aa9B2FBF50042B724D8c4dB80F23b4"
                        },
                        {
                          "name": "selectors",
                          "type": "bytes4[]",
                          "value": [
                            "0x8456cb59"
                          ]
                        },
                        {
                          "name": "roleId",
                          "type": "uint64",
                          "value": "21"
                        }
                      ]
                    }
                  },
                  {
                    "operation": 0,
                    "to": "0xe167330E2Eac88666de253e9607C6d9ae0cA2824",
                    "value": "0",
                    "data": "0x08d6122d0000000000000000000000002037a5eb67aa9b2fbf50042b724d8c4db80f23b40000000000000000000000000000000000000000000000000000000000000060000000000000000000000000000000000000000000000000000000000000001600000000000000000000000000000000000000000000000000000000000000013f4ba83a00000000000000000000000000000000000000000000000000000000",
                    "dataDecoded": {
                      "method": "setTargetFunctionRole",
                      "parameters": [
                        {
                          "name": "target",
                          "type": "address",
                          "value": "0x2037a5Eb67aa9B2FBF50042B724D8c4dB80F23b4"
                        },
                        {
                          "name": "selectors",
                          "type": "bytes4[]",
                          "value": [
                            "0x3f4ba83a"
                          ]
                        },
                        {
                          "name": "roleId",
                          "type": "uint64",
                          "value": "22"
                        }
                      ]
                    }
                  },
                  {
                    "operation": 0,
                    "to": "0xe167330E2Eac88666de253e9607C6d9ae0cA2824",
                    "value": "0",
                    "data": "0x08d6122d0000000000000000000000002037a5eb67aa9b2fbf50042b724d8c4db80f23b40000000000000000000000000000000000000000000000000000000000000060000000000000000000000000000000000000000000000000000000000000001900000000000000000000000000000000000000000000000000000000000000017a9e5e4b00000000000000000000000000000000000000000000000000000000",
                    "dataDecoded": {
                      "method": "setTargetFunctionRole",
                      "parameters": [
                        {
                          "name": "target",
                          "type": "address",
                          "value": "0x2037a5Eb67aa9B2FBF50042B724D8c4dB80F23b4"
                        },
                        {
                          "name": "selectors",
                          "type": "bytes4[]",
                          "value": [
                            "0x7a9e5e4b"
                          ]
                        },
                        {
                          "name": "roleId",
                          "type": "uint64",
                          "value": "25"
                        }
                      ]
                    }
                  },
                  {
                    "operation": 0,
                    "to": "0xe167330E2Eac88666de253e9607C6d9ae0cA2824",
                    "value": "0",
                    "data": "0x08d6122d0000000000000000000000002037a5eb67aa9b2fbf50042b724d8c4db80f23b40000000000000000000000000000000000000000000000000000000000000060000000000000000000000000000000000000000000000000000000000000001800000000000000000000000000000000000000000000000000000000000000014f1ef28600000000000000000000000000000000000000000000000000000000",
                    "dataDecoded": {
                      "method": "setTargetFunctionRole",
                      "parameters": [
                        {
                          "name": "target",
                          "type": "address",
                          "value": "0x2037a5Eb67aa9B2FBF50042B724D8c4dB80F23b4"
                        },
                        {
                          "name": "selectors",
                          "type": "bytes4[]",
                          "value": [
                            "0x4f1ef286"
                          ]
                        },
                        {
                          "name": "roleId",
                          "type": "uint64",
                          "value": "24"
                        }
                      ]
                    }
                  },
                  {
                    "operation": 0,
                    "to": "0xe167330E2Eac88666de253e9607C6d9ae0cA2824",
                    "value": "0",
                    "data": "0xd22b5989000000000000000000000000823210eb6390b88e2b8ad7152df5d8f30b8fd305000000000000000000000000000000000000000000000000000000000003f480",
                    "dataDecoded": {
                      "method": "setTargetAdminDelay",
                      "parameters": [
                        {
                          "name": "target",
                          "type": "address",
                          "value": "0x823210Eb6390B88e2b8ad7152DF5D8F30B8FD305"
                        },
                        {
                          "name": "newDelay",
                          "type": "uint32",
                          "value": "259200"
                        }
                      ]
                    }
                  },
                  {
                    "operation": 0,
                    "to": "0xe167330E2Eac88666de253e9607C6d9ae0cA2824",
                    "value": "0",
                    "data": "0xd22b59890000000000000000000000002037a5eb67aa9b2fbf50042b724d8c4db80f23b4000000000000000000000000000000000000000000000000000000000003f480",
                    "dataDecoded": {
                      "method": "setTargetAdminDelay",
                      "parameters": [
                        {
                          "name": "target",
                          "type": "address",
                          "value": "0x2037a5Eb67aa9B2FBF50042B724D8c4dB80F23b4"
                        },
                        {
                          "name": "newDelay",
                          "type": "uint32",
                          "value": "259200"
                        }
                      ]
                    }
                  }
                ]
              }
            ]
          },
          "confirmationsRequired": 4,
          "confirmations": [
            {
              "owner": "0xD6bB3f9718D4f30ed2851c713275dEf7529D1411",
              "submissionDate": "2026-05-01T02:36:01.282850Z",
              "transactionHash": null,
              "signature": "0x7b9dcb45fa61fe42acfecbf32a69980ed2aaa5e850f15a80d66717ba3f250d7e7218d78067d3f66463f1ba3b49a82f1d8545d5342052313a3f70dcdfdd29560d1b",
              "signatureType": "EOA"
            },
            {
              "owner": "0x5db416BcFc1a8b5b921f55C1E078d1F39194e99F",
              "submissionDate": "2026-05-01T02:40:42.784944Z",
              "transactionHash": null,
              "signature": "0xd8a6ca7a733da381c51a2eed74f7aa0e75b630274cc2a6c3688cd3602612ea4877e6378522df2933a3e070fed5c7038be9a332e1c389015ee5a2954c5e4e67b51c",
              "signatureType": "EOA"
            }
          ],
          "trusted": true,
          "signatures": null
        }
      ]
    },
    "guardian_upgrader_safe": {
      "address": "0xf9862EfC1704aC05e687f66E5cD8c130E5663cE2",
      "url": "https://safe-transaction-mainnet.safe.global/api/v1/safes/0xf9862EfC1704aC05e687f66E5cD8c130E5663cE2/multisig-transactions/?executed=false&limit=10",
      "count": 108,
      "results": [
        {
          "safe": "0xf9862EfC1704aC05e687f66E5cD8c130E5663cE2",
          "to": "0xE1B96555BbecA40E583BbB41a11C68Ca4706A414",
          "value": "0",
          "data": "0x1a4d01d200000000000000000000000000000000000000000001c41a94f83d33a8600000000000000000000000000000000000000000000000000000000000000000000000000000000000000000000000000000000000000001c7fa90620a0ac9fafeb0",
          "operation": 0,
          "gasToken": "0x0000000000000000000000000000000000000000",
          "safeTxGas": 0,
          "baseGas": 0,
          "gasPrice": "0",
          "refundReceiver": "0x0000000000000000000000000000000000000000",
          "nonce": 721,
          "executionDate": null,
          "submissionDate": "2026-06-04T17:37:00.659533Z",
          "modified": "2026-06-04T17:39:22.090563Z",
          "blockNumber": null,
          "transactionHash": null,
          "safeTxHash": "0x2696f480d6c2765f729b60d896d4d31e812220fe0765d5880661e554ca3928f3",
          "proposer": "0xB98cD8C868cf00cEA934977dBE4AC090E808fb87",
          "proposedByDelegate": null,
          "executor": null,
          "isExecuted": false,
          "isSuccessful": null,
          "ethGasPrice": null,
          "maxFeePerGas": null,
          "maxPriorityFeePerGas": null,
          "gasUsed": null,
          "fee": null,
          "payment": null,
          "origin": "{\"url\": \"https://www.curve.finance\", \"name\": \"Curve Finance\", \"note\": null}",
          "dataDecoded": {
            "method": "remove_liquidity_one_coin",
            "parameters": [
              {
                "name": "_burn_amount",
                "type": "uint256",
                "value": "2135000000000000000000000"
              },
              {
                "name": "i",
                "type": "int128",
                "value": "0"
              },
              {
                "name": "_min_received",
                "type": "uint256",
                "value": "2153298839613246594023088"
              }
            ]
          },
          "confirmationsRequired": 3,
          "confirmations": [
            {
              "owner": "0xB98cD8C868cf00cEA934977dBE4AC090E808fb87",
              "submissionDate": "2026-06-04T17:37:00.691882Z",
              "transactionHash": null,
              "signature": "0x2ec10d0383a9e0408ad921cb526d347852c662a8d184ed4426ee8575833594ec08a7b0454e2ec5d3cb8919e26bd959fc87c3440ab39e46d1fb32b29a861999d01b",
              "signatureType": "EOA"
            },
            {
              "owner": "0xcFCF3C9Ed3d97DB54c99BDd197E59952a0973f6e",
              "submissionDate": "2026-06-04T17:39:17.600601Z",
              "transactionHash": null,
              "signature": "0xacdbeea0426e23041d8e6023a565573428125e848a3247f466d7102cc800536b6cc24fd60680f451dee0741d14017ddbebf871168a91e31a2ceabca9f9565ad41c",
              "signatureType": "EOA"
            },
            {
              "owner": "0x5db416BcFc1a8b5b921f55C1E078d1F39194e99F",
              "submissionDate": "2026-06-04T17:39:22.090563Z",
              "transactionHash": null,
              "signature": "0x668a9fe474663a5c212a6f84c1786566e70188c08e7d4042b2e1d1d990de9ac56b5f7eb4eb111c9c37475feebf99860dc15e0fe359b207b4410875ce739836e91b",
              "signatureType": "EOA"
            }
          ],
          "trusted": true,
          "signatures": null
        },
        {
          "safe": "0xf9862EfC1704aC05e687f66E5cD8c130E5663cE2",
          "to": "0xB98cD8C868cf00cEA934977dBE4AC090E808fb87",
          "value": "10000000000000000",
          "data": null,
          "operation": 0,
          "gasToken": "0x0000000000000000000000000000000000000000",
          "safeTxGas": 0,
          "baseGas": 0,
          "gasPrice": "0",
          "refundReceiver": "0x0000000000000000000000000000000000000000",
          "nonce": 720,
          "executionDate": null,
          "submissionDate": "2026-06-04T17:38:19.113174Z",
          "modified": "2026-06-04T17:39:03.052462Z",
          "blockNumber": null,
          "transactionHash": null,
          "safeTxHash": "0x6ef1e84fd304a184b712247d2df094db41d6fe088463e3cac56da1f3ea8bc391",
          "proposer": "0xB98cD8C868cf00cEA934977dBE4AC090E808fb87",
          "proposedByDelegate": null,
          "executor": null,
          "isExecuted": false,
          "isSuccessful": null,
          "ethGasPrice": null,
          "maxFeePerGas": null,
          "maxPriorityFeePerGas": null,
          "gasUsed": null,
          "fee": null,
          "payment": null,
          "origin": "{\"url\": \"https://app.safe.global\", \"name\": \"\", \"note\": null}",
          "dataDecoded": null,
          "confirmationsRequired": 3,
          "confirmations": [
            {
              "owner": "0xB98cD8C868cf00cEA934977dBE4AC090E808fb87",
              "submissionDate": "2026-06-04T17:38:19.146238Z",
              "transactionHash": null,
              "signature": "0x6983b9a7b1ff10e04f0114429d55dcfb9c939864cfa8d7ec668d8a56addd18ea0f254dfdef16f9258c245e619ee2b915480988f91af33fc93f258828c34ec8db1b",
              "signatureType": "EOA"
            },
            {
              "owner": "0xcFCF3C9Ed3d97DB54c99BDd197E59952a0973f6e",
              "submissionDate": "2026-06-04T17:39:01.513792Z",
              "transactionHash": null,
              "signature": "0xc269ca0414bd4a31b7753a0e8cc0fd40d1abf5669ec4c8d1ea289f6c0b486c28662a3a8ec990e79ea6876f80a8b9846c547b711f80a8df1b35cd98976721648a1b",
              "signatureType": "EOA"
            },
            {
              "owner": "0x5db416BcFc1a8b5b921f55C1E078d1F39194e99F",
              "submissionDate": "2026-06-04T17:39:03.052462Z",
              "transactionHash": null,
              "signature": "0xb1a5a3e0e102e3e4bb6e00dd97ff241100a422494ef5754a275abc425d1acbe4639e899092a8af9500d6c8987cfb899088530ac32ef7bafaae7d60dd3d5f332e1b",
              "signatureType": "EOA"
            }
          ],
          "trusted": true,
          "signatures": null
        },
        {
          "safe": "0xf9862EfC1704aC05e687f66E5cD8c130E5663cE2",
          "to": "0xE1B96555BbecA40E583BbB41a11C68Ca4706A414",
          "value": "0",
          "data": "0x1a4d01d20000000000000000000000000000000000000000000422ca8b0a00a4250000000000000000000000000000000000000000000000000000000000000000000000000000000000000000000000000000000000000000042c1cbf491aed9687fffa",
          "operation": 0,
          "gasToken": "0x0000000000000000000000000000000000000000",
          "safeTxGas": 0,
          "baseGas": 0,
          "gasPrice": "0",
          "refundReceiver": "0x0000000000000000000000000000000000000000",
          "nonce": 720,
          "executionDate": null,
          "submissionDate": "2026-06-04T17:17:54.315603Z",
          "modified": "2026-06-04T17:25:08.038741Z",
          "blockNumber": null,
          "transactionHash": null,
          "safeTxHash": "0x34b52e64eeebed2a22e3dc046263a9b76fe1b9bace53c2d4463de8bc8dcb6bb2",
          "proposer": "0xB98cD8C868cf00cEA934977dBE4AC090E808fb87",
          "proposedByDelegate": null,
          "executor": null,
          "isExecuted": false,
          "isSuccessful": null,
          "ethGasPrice": null,
          "maxFeePerGas": null,
          "maxPriorityFeePerGas": null,
          "gasUsed": null,
          "fee": null,
          "payment": null,
          "origin": "{\"url\": \"https://www.curve.finance\", \"name\": \"Curve Finance\", \"note\": null}",
          "dataDecoded": {
            "method": "remove_liquidity_one_coin",
            "parameters": [
              {
                "name": "_burn_amount",
                "type": "uint256",
                "value": "5000000000000000000000000"
              },
              {
                "name": "i",
                "type": "int128",
                "value": "0"
              },
              {
                "name": "_min_received",
                "type": "uint256",
                "value": "5044017696116587234852858"
              }
            ]
          },
          "confirmationsRequired": 3,
          "confirmations": [
            {
              "owner": "0xB98cD8C868cf00cEA934977dBE4AC090E808fb87",
              "submissionDate": "2026-06-04T17:17:54.348931Z",
              "transactionHash": null,
              "signature": "0x0b172bfb1106b03e99066f37cfce275473b33be03a08df6eab6ba6c6e48c4cef1f87d1b15bc3837e803fbe3782d86ba28c6ea69ebb5674d775a1c86bc6ce33471c",
              "signatureType": "EOA"
            },
            {
              "owner": "0x5db416BcFc1a8b5b921f55C1E078d1F39194e99F",
              "submissionDate": "2026-06-04T17:18:35.750579Z",
              "transactionHash": null,
              "signature": "0x1baf1eb1b6e210d6b947125319a4b110d413adc7fabe2ee2e63aa2b55731e11169cfd08eee84675d27dd09c7193d4d0d3e64038a9954406e14be8a8d4ded49111c",
              "signatureType": "EOA"
            },
            {
              "owner": "0xcFCF3C9Ed3d97DB54c99BDd197E59952a0973f6e",
              "submissionDate": "2026-06-04T17:25:08.038741Z",
              "transactionHash": null,
              "signature": "0xfc27c25969178460faf731cb9ba513870c6d630c96febac8adf54ab64189cf7204ae574d377bf97035ae82dc2bb3c7eb6e51a8d51d3ec19ee4ee2fdfbe8211c21b",
              "signatureType": "EOA"
            }
          ],
          "trusted": true,
          "signatures": null
        },
        {
          "safe": "0xf9862EfC1704aC05e687f66E5cD8c130E5663cE2",
          "to": "0xE1B96555BbecA40E583BbB41a11C68Ca4706A414",
          "value": "0",
          "data": "0x1a4d01d200000000000000000000000000000000000000000000d3c21bcecceda1000000000000000000000000000000000000000000000000000000000000000000000000000000000000000000000000000000000000000000d5b48f18c8d23ac985b2",
          "operation": 0,
          "gasToken": "0x0000000000000000000000000000000000000000",
          "safeTxGas": 0,
          "baseGas": 0,
          "gasPrice": "0",
          "refundReceiver": "0x0000000000000000000000000000000000000000",
          "nonce": 713,
          "executionDate": null,
          "submissionDate": "2026-06-04T15:15:52.936483Z",
          "modified": "2026-06-04T15:16:24.842372Z",
          "blockNumber": null,
          "transactionHash": null,
          "safeTxHash": "0x224c8a7813b600301148695c18307cbee109207d56f79d848174a780665b8adf",
          "proposer": "0xB98cD8C868cf00cEA934977dBE4AC090E808fb87",
          "proposedByDelegate": null,
          "executor": null,
          "isExecuted": false,
          "isSuccessful": null,
          "ethGasPrice": null,
          "maxFeePerGas": null,
          "maxPriorityFeePerGas": null,
          "gasUsed": null,
          "fee": null,
          "payment": null,
          "origin": "{\"url\": \"https://www.curve.finance\", \"name\": \"Curve Finance\", \"note\": null}",
          "dataDecoded": {
            "method": "remove_liquidity_one_coin",
            "parameters": [
              {
                "name": "_burn_amount",
                "type": "uint256",
                "value": "1000000000000000000000000"
              },
              {
                "name": "i",
                "type": "int128",
                "value": "0"
              },
              {
                "name": "_min_received",
                "type": "uint256",
                "value": "1009194785996654269531570"
              }
            ]
          },
          "confirmationsRequired": 3,
          "confirmations": [
            {
              "owner": "0xB98cD8C868cf00cEA934977dBE4AC090E808fb87",
              "submissionDate": "2026-06-04T15:15:52.966700Z",
              "transactionHash": null,
              "signature": "0xcab271fec5c7093346a3044a0155e6fc938269b31b46148e348813acf08a73f136fee76324502d32bccf7b7ad9140038814889a836cb9475c7873ddecf4ef7a51c",
              "signatureType": "EOA"
            },
            {
              "owner": "0x5db416BcFc1a8b5b921f55C1E078d1F39194e99F",
              "submissionDate": "2026-06-04T15:16:24.842372Z",
              "transactionHash": null,
              "signature": "0xc900d3e08ad166300271c7aa4c0b00392e8f8de01065421939dde65ea8f91168513189adf2ba3696d6715e728ec09920c147a03f648af38556ac4446fe3eaee31c",
              "signatureType": "EOA"
            }
          ],
          "trusted": true,
          "signatures": null
        },
        {
          "safe": "0xf9862EfC1704aC05e687f66E5cD8c130E5663cE2",
          "to": "0xE1B96555BbecA40E583BbB41a11C68Ca4706A414",
          "value": "0",
          "data": "0x1a4d01d2000000000000000000000000000000000000000000027b46536c66c8e30000000000000000000000000000000000000000000000000000000000000000000000000000000000000000000000000000000000000000027d31d6f6c9cfad8dc5a8",
          "operation": 0,
          "gasToken": "0x0000000000000000000000000000000000000000",
          "safeTxGas": 0,
          "baseGas": 0,
          "gasPrice": "0",
          "refundReceiver": "0x0000000000000000000000000000000000000000",
          "nonce": 709,
          "executionDate": null,
          "submissionDate": "2026-06-04T14:26:53.282870Z",
          "modified": "2026-06-04T14:27:42.545951Z",
          "blockNumber": null,
          "transactionHash": null,
          "safeTxHash": "0x6bcf234c0eb5eb7b9b0de2e66c4f0fe23241fe78d029999c08ee52f904000f66",
          "proposer": "0xB98cD8C868cf00cEA934977dBE4AC090E808fb87",
          "proposedByDelegate": null,
          "executor": null,
          "isExecuted": false,
          "isSuccessful": null,
          "ethGasPrice": null,
          "maxFeePerGas": null,
          "maxPriorityFeePerGas": null,
          "gasUsed": null,
          "fee": null,
          "payment": null,
          "origin": "{\"url\": \"https://www.curve.finance\", \"name\": \"Curve Finance\", \"note\": null}",
          "dataDecoded": {
            "method": "remove_liquidity_one_coin",
            "parameters": [
              {
                "name": "_burn_amount",
                "type": "uint256",
                "value": "3000000000000000000000000"
              },
              {
                "name": "i",
                "type": "int128",
                "value": "0"
              },
              {
                "name": "_min_received",
                "type": "uint256",
                "value": "3009066829837437963716008"
              }
            ]
          },
          "confirmationsRequired": 3,
          "confirmations": [
            {
              "owner": "0xB98cD8C868cf00cEA934977dBE4AC090E808fb87",
              "submissionDate": "2026-06-04T14:26:53.387688Z",
              "transactionHash": null,
              "signature": "0x025d72e6bb33c4db55aca9baf41b5a8b82b63d7511360ff88abfef00d5255f98672ac5e74c3294642b6daeb9dd575436c82a04d66f93b1e0de796da48ea8d4ce1c",
              "signatureType": "EOA"
            },
            {
              "owner": "0x5db416BcFc1a8b5b921f55C1E078d1F39194e99F",
              "submissionDate": "2026-06-04T14:27:42.545951Z",
              "transactionHash": null,
              "signature": "0x781e6c95b29e7d9affb826597838ffd33ee093ae4f4205608a59d0327d3492c031e5ce21ccab53e5a4faa07700e0faadb786bd78ed227d6a4249faed158559de1c",
              "signatureType": "EOA"
            }
          ],
          "trusted": true,
          "signatures": null
        }
      ]
    },
    "operations_safe": {
      "address": "0x37B0779A66edc491df83e59a56D485835323a555",
      "url": "https://safe-transaction-mainnet.safe.global/api/v1/safes/0x37B0779A66edc491df83e59a56D485835323a555/multisig-transactions/?executed=false&limit=10",
      "count": 2,
      "results": [
        {
          "safe": "0x37B0779A66edc491df83e59a56D485835323a555",
          "to": "0x888888888889758F76e7103c6CbF23ABbF58F946",
          "value": "0",
          "data": "0x60fc846600000000000000000000000000000000000000000000000000000000000000200000000000000000000000000000000000000000000000000000000000000002000000000000000000000000000000000000000000000000000000000000004000000000000000000000000000000000000000000000000000000000000006800000000000000000000000000000000000000000000000000000000000000000000000000000000000000000000000000000000000000000000000000000004000000000000000000000000000000000000000000000000000000000000005c47036e052000000000000000000000000f9862efc1704ac05e687f66e5cd8c130e5663ce20000000000000000000000003c53fae231ad3c0408a8b6d33138bbff1caec330000000000000000000000000000000000000000000000000000000000000000000000000000000000000000000000000000000000000207b916c0da6f04047d7000000000000000000000000000000000000000000001f1aed5a7ecd634af84500000000000000000000000000000000000000000000000000000000000000e0000000000000000000000000000000000000000000000000000000000000022000000000000000000000000038eeb52f0771140d10c4e9a9a72349a329fe8a6a0000000000000000000000000000000000000000000035e0d47fd6145608848800000000000000000000000038eeb52f0771140d10c4e9a9a72349a329fe8a6a000000000000000000000000000000000000000000000000000000000000000000000000000000000000000000000000000000000000000000000000000000a000000000000000000000000000000000000000000000000000000000000000000000000000000000000000000000000000000000000000000000000000000000000000000000000000000000000000000000000000000000000000000000008000000000000000000000000000000000000000000000000000000000000000000000000000000000000000000000000000000000000000000000000000000000000000000000000000000000000000000000c9b3e2c3ec88b1b4c0cd853f4321000000000000000000000000000000000000000000000000000000000000000000000000000000000000000000000000000000000000000000000000000000a00000000000000000000000000000000000000000000000000000000000000360000000000000000000000000000000000000000000000000000000000000038000000000000000000000000000000000000000000000000000000000000000010000000000000000000000000000000000000000000000000000000000000020000000000000000000000000000000000000000000000000000000000000006000000000000000000000000000000000000000000000000000000000000002000000000000000000000000000000000000000000000000454a86c252727aa5d012e419b7f9bfacc988b95ecaa6da663eee1142a60b4c44e56d8459e1be4170720000000000000000000000000000000000000000000000000000000069b77e3a0000000000000000000000000000000000000000000000000000000000000000000000000000000000000000000000000000000000000000000000000000000200000000000000000000000038eeb52f0771140d10c4e9a9a72349a329fe8a6a0000000000000000000000004864dcfa317b29e13e6caa04b5c37f24c79a465e000000000000000000000000bbd8610cf2113ded464f6b086eb1cf9f9c19db0a000000000000000000000000bbd8610cf2113ded464f6b086eb1cf9f9c19db0a00000000000000000000000000000000000000000000019352cceae917bd96ec00000000000000000000000000000000000000000000000001c233da6f125cac0000000000000000000000000000000000000000000000000c7d713b49da00000000000000000000000000000000000000000000000000000000000000000180000000000000000000000000000000000000000000000000000000000000000000000000000000000000000000000000000000000000000000000000000000418d6906304d7b2942cd6dbf09b16e339003acf0402aede1e742b2cbb8314469a62a332ab4e62763878a10693ddce9e35da2d753738c964d0cf85b05123832d74d1b0000000000000000000000000000000000000000000000000000000000000000000000000000000000000000000000000000000000000000000000000000000000000000000000000000000000000000000000000000000000000000000000000000000000000000000000000000000000000000000000000000000000000000000000000000000000000000000000000000000000000000000000000000000000000000000000000000000000000000000000000000000000004000000000000000000000000000000000000000000000000000000000000001e40741a80300000000000000000000000000000000000000000000000000000000000000a000000000000000000000000000000000000000000000000000000000000000c00000000000000000000000000000000000000000000000000000000000000180000000000000000000000000d4f480965d2347d421f1bec7f545682e5ec2151d00000000000000000000000000000000000000000000000000000000000001c0000000000000000000000000000000000000000000000000000000000000000000000000000000000000000000000000000000000000000000000000000000010000000000000000000000004864dcfa317b29e13e6caa04b5c37f24c79a465e0000000000000000000000000000000000000000000000000000000000000001000000000000000000000000000000000000000000000000000000000000000000000000000000000000000038eeb52f0771140d10c4e9a9a72349a329fe8a6a00000000000000000000000000000000000000000000000ff85e20984f033a3600000000000000000000000000000000000000000000000000000000000000010000000000000000000000003c53fae231ad3c0408a8b6d33138bbff1caec330000000000000000000000000000000000000000000000000000000000000000000000000000000000000000000000000000000000000000000000000",
          "operation": 0,
          "gasToken": "0x0000000000000000000000000000000000000000",
          "safeTxGas": 0,
          "baseGas": 0,
          "gasPrice": "0",
          "refundReceiver": "0x0000000000000000000000000000000000000000",
          "nonce": 31,
          "executionDate": null,
          "submissionDate": "2026-03-10T15:15:18.540810Z",
          "modified": "2026-03-10T15:33:32.212641Z",
          "blockNumber": null,
          "transactionHash": null,
          "safeTxHash": "0x3e279773341b644a7d696492e1d53f58d05cf93545062d88e14a312535c5e57c",
          "proposer": "0xB98cD8C868cf00cEA934977dBE4AC090E808fb87",
          "proposedByDelegate": null,
          "executor": null,
          "isExecuted": false,
          "isSuccessful": null,
          "ethGasPrice": null,
          "maxFeePerGas": null,
          "maxPriorityFeePerGas": null,
          "gasUsed": null,
          "fee": null,
          "payment": null,
          "origin": "{\"url\": \"https://apps-portal.safe.global/wallet-connect\", \"name\": \"Pendle Finance\", \"note\": null}",
          "dataDecoded": {
            "method": "fallback",
            "parameters": []
          },
          "confirmationsRequired": 3,
          "confirmations": [
            {
              "owner": "0xB98cD8C868cf00cEA934977dBE4AC090E808fb87",
              "submissionDate": "2026-03-10T15:15:18.671184Z",
              "transactionHash": null,
              "signature": "0x8425b7342771762509650db3428890dec133cec8ec6fb279842b1075317fd97a53ae9fe761cbcae35d8b7c25793fc037b3eb21ad983225bc7acf592146d1136a1b",
              "signatureType": "EOA"
            },
            {
              "owner": "0x5db416BcFc1a8b5b921f55C1E078d1F39194e99F",
              "submissionDate": "2026-03-10T15:16:42.920557Z",
              "transactionHash": null,
              "signature": "0xa229395b5e09a2b63547350d26ce4a3ef1b6d90f51a384362b9b77481df6619e5197247d26e46c94596165a87cda14bf6bf2c3f4d101da211744dedbf6db11371b",
              "signatureType": "EOA"
            },
            {
              "owner": "0xcFCF3C9Ed3d97DB54c99BDd197E59952a0973f6e",
              "submissionDate": "2026-03-10T15:33:32.212641Z",
              "transactionHash": null,
              "signature": "0x32c888471a56d11514c0a9ebe39610f7891cc00e6b60dddfa1831313b611b0e75486e0d1d6ef4e22c8eef843f592d30b8d56d5fe2d3541d006e40df6661339611b",
              "signatureType": "EOA"
            }
          ],
          "trusted": true,
          "signatures": null
        },
        {
          "safe": "0x37B0779A66edc491df83e59a56D485835323a555",
          "to": "0x98A878b1Cd98131B271883B390f68D2c90674665",
          "value": "0",
          "data": "0x095ea7b3000000000000000000000000e1b96555bbeca40e583bbb41a11c68ca4706a414ffffffffffffffffffffffffffffffffffffffffffffffffffffffffffffffff",
          "operation": 0,
          "gasToken": "0x0000000000000000000000000000000000000000",
          "safeTxGas": 0,
          "baseGas": 0,
          "gasPrice": "0",
          "refundReceiver": "0x0000000000000000000000000000000000000000",
          "nonce": 0,
          "executionDate": null,
          "submissionDate": "2026-02-23T03:25:18.405405Z",
          "modified": "2026-02-23T03:25:18.439820Z",
          "blockNumber": null,
          "transactionHash": null,
          "safeTxHash": "0x0296c246076d9ece67d84d7282182a3c49c86cfbd04fe3c57ae42e84e84964f2",
          "proposer": "0x0442cC5BBfBc4B7Dc3A14F9766c21C82b45f0024",
          "proposedByDelegate": null,
          "executor": null,
          "isExecuted": false,
          "isSuccessful": null,
          "ethGasPrice": null,
          "maxFeePerGas": null,
          "maxPriorityFeePerGas": null,
          "gasUsed": null,
          "fee": null,
          "payment": null,
          "origin": "{\"url\": \"https://www.curve.finance\", \"name\": \"Curve Finance\", \"note\": null}",
          "dataDecoded": {
            "method": "approve",
            "parameters": [
              {
                "name": "spender",
                "type": "address",
                "value": "0xE1B96555BbecA40E583BbB41a11C68Ca4706A414"
              },
              {
                "name": "value",
                "type": "uint256",
                "value": "115792089237316195423570985008687907853269984665640564039457584007913129639935"
              }
            ]
          },
          "confirmationsRequired": 3,
          "confirmations": [
            {
              "owner": "0x0442cC5BBfBc4B7Dc3A14F9766c21C82b45f0024",
              "submissionDate": "2026-02-23T03:25:18.439820Z",
              "transactionHash": null,
              "signature": "0xdb8f453cb50bd0f04926e5b71767e008110534a860d253a6692d6025cf4d5f2b6e49e49bef7ac61fcfc848a9e80e6703462a6d45be2bc61306ad94a8b7d1f1531c",
              "signatureType": "EOA"
            }
          ],
          "trusted": true,
          "signatures": null
        }
      ]
    },
    "third_party_safe": {
      "address": "0x81F5d98eA5aCf65640ce8bB68aa8449b7c304c50",
      "url": "https://safe-transaction-mainnet.safe.global/api/v1/safes/0x81F5d98eA5aCf65640ce8bB68aa8449b7c304c50/multisig-transactions/?executed=false&limit=10",
      "count": 37,
      "results": [
        {
          "safe": "0x81F5d98eA5aCf65640ce8bB68aa8449b7c304c50",
          "to": "0x888888888889758F76e7103c6CbF23ABbF58F946",
          "value": "0",
          "data": "0x05eb532700000000000000000000000081f5d98ea5acf65640ce8bb68aa8449b7c304c500000000000000000000000003c53fae231ad3c0408a8b6d33138bbff1caec330000000000000000000000000000000000000000000013da329b633647180000000000000000000000000000000000000000000000000000000000000000000a000000000000000000000000000000000000000000000000000000000000001e000000000000000000000000038eeb52f0771140d10c4e9a9a72349a329fe8a6a0000000000000000000000000000000000000000000001c1ec382e654be6986d00000000000000000000000038eeb52f0771140d10c4e9a9a72349a329fe8a6a000000000000000000000000000000000000000000000000000000000000000000000000000000000000000000000000000000000000000000000000000000a000000000000000000000000000000000000000000000000000000000000000000000000000000000000000000000000000000000000000000000000000000000000000000000000000000000000000000000000000000000000000000000008000000000000000000000000000000000000000000000000000000000000000000000000000000000000000000000000000000000000000000000000000000000000000000000000000000000000000000000c9b3e2c3ec88b1b4c0cd853f4321000000000000000000000000000000000000000000000000000000000000000000000000000000000000000000000000000000000000000000000000000000a00000000000000000000000000000000000000000000000000000000000000360000000000000000000000000000000000000000000000000000000000000062000000000000000000000000000000000000000000000000000000000000000010000000000000000000000000000000000000000000000000000000000000020000000000000000000000000000000000000000000000000000000000000006000000000000000000000000000000000000000000000000000000000000002000000000000000000000000000000000000000000000000000933875cf92876ab145611bf87e9bb0d26ce55b4ee043b5ec38910fee4f729ef9b11c6424133c4fb000000000000000000000000000000000000000000000000000000006a2144e00000000000000000000000000000000000000000000000000000000000000000000000000000000000000000000000000000000000000000000000000000000200000000000000000000000038eeb52f0771140d10c4e9a9a72349a329fe8a6a0000000000000000000000004864dcfa317b29e13e6caa04b5c37f24c79a465e000000000000000000000000a166323f03cd0dae70487d551d3b457c3151bee4000000000000000000000000a166323f03cd0dae70487d551d3b457c3151bee4000000000000000000000000000000000000000000000030315a75e04a44000000000000000000000000000000000000000000000000000003d280d2483505800000000000000000000000000000000000000000000000000c7d713b49da0000000000000000000000000000000000000000000000000000000000000000018000000000000000000000000000000000000000000000000000000000000000000000000000000000000000000000000000000000000000000000000000000041b5d8405757e66d465af6b0372d9c32d157035a439f253d78424637ace966fc3777422807061ed7da7e927a42ffe4be229803a2c984ebc427fd293f20ec8137181b0000000000000000000000000000000000000000000000000000000000000000000000000000000000000000000000000000000000000000000000000000010000000000000000000000000000000000000000000000000000000000000020000000000000000000000000000000000000000000000000000000000000006000000000000000000000000000000000000000000000000000000000000002000000000000000000000000000000000000000000000000e23a2c4e33b4cd19ff21024034c550f02a24c6a14d9c064a5365bcaa7f81922f07efd68b66d67de343000000000000000000000000000000000000000000000000000000006a3246390000000000000000000000000000000000000000000000000000000000000000000000000000000000000000000000000000000000000000000000000000000100000000000000000000000038eeb52f0771140d10c4e9a9a72349a329fe8a6a0000000000000000000000004864dcfa317b29e13e6caa04b5c37f24c79a465e0000000000000000000000003c56ae2ef8e1268db9aa5cdb01b08f53eb21212c0000000000000000000000003c56ae2ef8e1268db9aa5cdb01b08f53eb21212c0000000000000000000000000000000000000000000000e23a2c4e33b4cd19ff00000000000000000000000000000000000000000000000002c60a4a45aeb7800000000000000000000000000000000000000000000000000c7d713b49da0000000000000000000000000000000000000000000000000000000000000000018000000000000000000000000000000000000000000000000000000000000000000000000000000000000000000000000000000000000000000000000000000041814a33c37956dda65b9d56f97c4729659caf0297d64f9b76d9a3379d881ce6132518b3a9fafaf69401a2cd1977a015300a66d2554d2d681ffd2c1daf33e129d71b000000000000000000000000000000000000000000000000000000000000000000000000000000000000000000000000000000000000000000000000000000",
          "operation": 0,
          "gasToken": "0x0000000000000000000000000000000000000000",
          "safeTxGas": 0,
          "baseGas": 0,
          "gasPrice": "0",
          "refundReceiver": "0x0000000000000000000000000000000000000000",
          "nonce": 289,
          "executionDate": null,
          "submissionDate": "2026-06-04T09:22:41.596095Z",
          "modified": "2026-06-04T09:22:41.626172Z",
          "blockNumber": null,
          "transactionHash": null,
          "safeTxHash": "0x0b52f9c2d812f1b50ac666e21a88ec9a8c6657bf2c01ae5a4d439cc5c8b9332c",
          "proposer": "0xb99D885642AeA5558d51328cC99123f0929b83Bc",
          "proposedByDelegate": null,
          "executor": null,
          "isExecuted": false,
          "isSuccessful": null,
          "ethGasPrice": null,
          "maxFeePerGas": null,
          "maxPriorityFeePerGas": null,
          "gasUsed": null,
          "fee": null,
          "payment": null,
          "origin": "{\"url\": \"https://app.pendle.finance\", \"name\": \"Pendle Finance\", \"note\": null}",
          "dataDecoded": {
            "method": "fallback",
            "parameters": []
          },
          "confirmationsRequired": 2,
          "confirmations": [
            {
              "owner": "0xb99D885642AeA5558d51328cC99123f0929b83Bc",
              "submissionDate": "2026-06-04T09:22:41.626172Z",
              "transactionHash": null,
              "signature": "0x37fbd66e4a12396a1868442a4a7f05bd0c02f5cc39590f76237102366a954245260edada872681162dcea0876e7a5a164e33d96e371cfda7bff21e8e2bb284581c",
              "signatureType": "EOA"
            }
          ],
          "trusted": true,
          "signatures": null
        },
        {
          "safe": "0x81F5d98eA5aCf65640ce8bB68aa8449b7c304c50",
          "to": "0x888888888889758F76e7103c6CbF23ABbF58F946",
          "value": "0",
          "data": "0x05eb532700000000000000000000000081f5d98ea5acf65640ce8bb68aa8449b7c304c500000000000000000000000003c53fae231ad3c0408a8b6d33138bbff1caec33000000000000000000000000000000000000000000000d3c21bcecceda100000000000000000000000000000000000000000000000000000000000000000000a000000000000000000000000000000000000000000000000000000000000001e000000000000000000000000038eeb52f0771140d10c4e9a9a72349a329fe8a6a00000000000000000000000000000000000000000000015e4bd5213733ec622600000000000000000000000038eeb52f0771140d10c4e9a9a72349a329fe8a6a000000000000000000000000000000000000000000000000000000000000000000000000000000000000000000000000000000000000000000000000000000a000000000000000000000000000000000000000000000000000000000000000000000000000000000000000000000000000000000000000000000000000000000000000000000000000000000000000000000000000000000000000000000008000000000000000000000000000000000000000000000000000000000000000000000000000000000000000000000000000000000000000000000000000000000000000000000000000000000000000000000c9b3e2c3ec88b1b4c0cd853f4321000000000000000000000000000000000000000000000000000000000000000000000000000000000000000000000000000000000000000000000000000000a000000000000000000000000000000000000000000000000000000000000000c00000000000000000000000000000000000000000000000000000000000000380000000000000000000000000000000000000000000000000000000000000000000000000000000000000000000000000000000000000000000000000000000010000000000000000000000000000000000000000000000000000000000000020000000000000000000000000000000000000000000000000000000000000006000000000000000000000000000000000000000000000000000000000000002000000000000000000000000000000000000000000000000c1b809b2576d4f5af0136a6ca2e1506eadb6dfc89700d229087900c79f16346cc0324bdb5c75dbc916000000000000000000000000000000000000000000000000000000006a3335000000000000000000000000000000000000000000000000000000000000000000000000000000000000000000000000000000000000000000000000000000000100000000000000000000000038eeb52f0771140d10c4e9a9a72349a329fe8a6a0000000000000000000000004864dcfa317b29e13e6caa04b5c37f24c79a465e000000000000000000000000d619b77e83b72ea7b01f169a61c733d0ed8bdddd000000000000000000000000d619b77e83b72ea7b01f169a61c733d0ed8bdddd0000000000000000000000000000000000000000000000c1b809b2576d4f5af000000000000000000000000000000000000000000000000003a9d6e826f9c9300000000000000000000000000000000000000000000000000c7d713b49da0000000000000000000000000000000000000000000000000000000000000000018000000000000000000000000000000000000000000000000000000000000000000000000000000000000000000000000000000000000000000000000000000041f856ec167716776569f07f3a46b0d2f5d44cba85686f0e20a1d427b5192068715cbbd876a7a53b325fca4948334b0d0f28e620440e1bf02f2b18a8b0d5220e1a1b000000000000000000000000000000000000000000000000000000000000000000000000000000000000000000000000000000000000000000000000000000",
          "operation": 0,
          "gasToken": "0x0000000000000000000000000000000000000000",
          "safeTxGas": 0,
          "baseGas": 0,
          "gasPrice": "0",
          "refundReceiver": "0x0000000000000000000000000000000000000000",
          "nonce": 288,
          "executionDate": null,
          "submissionDate": "2026-06-04T09:20:18.470379Z",
          "modified": "2026-06-04T09:21:41.595777Z",
          "blockNumber": null,
          "transactionHash": null,
          "safeTxHash": "0x01ecc814059a84c303373bac2e8db720d0ae29d6f8299860591ef532ad737a48",
          "proposer": "0xb99D885642AeA5558d51328cC99123f0929b83Bc",
          "proposedByDelegate": null,
          "executor": null,
          "isExecuted": false,
          "isSuccessful": null,
          "ethGasPrice": null,
          "maxFeePerGas": null,
          "maxPriorityFeePerGas": null,
          "gasUsed": null,
          "fee": null,
          "payment": null,
          "origin": "{\"url\": \"https://app.pendle.finance\", \"name\": \"Pendle Finance\", \"note\": null}",
          "dataDecoded": {
            "method": "fallback",
            "parameters": []
          },
          "confirmationsRequired": 2,
          "confirmations": [
            {
              "owner": "0xb99D885642AeA5558d51328cC99123f0929b83Bc",
              "submissionDate": "2026-06-04T09:20:18.502457Z",
              "transactionHash": null,
              "signature": "0xcc77a69b533a08c1da55757d6b3f1de5ae2ba0ca6c315b9b8c62e9ab560efe5d7364aab2ae4e73328d83d761741c7e43bae9f4bcf042532d039db5b4fa46f4e41b",
              "signatureType": "EOA"
            },
            {
              "owner": "0x3d826a5e0e1f93dc6d66293AdD02985c54E5aDF8",
              "submissionDate": "2026-06-04T09:21:41.595777Z",
              "transactionHash": null,
              "signature": "0x725f687305dc41d96690cca4b47a203d211e6bb4ffabcb1a4f4338a1fc9261805d550096edbcc4418e4a112a23ddda13d4840a2b959d195e4a4ac103ec20c24d1b",
              "signatureType": "EOA"
            }
          ],
          "trusted": true,
          "signatures": null
        },
        {
          "safe": "0x81F5d98eA5aCf65640ce8bB68aa8449b7c304c50",
          "to": "0x888888888889758F76e7103c6CbF23ABbF58F946",
          "value": "0",
          "data": "0x05eb532700000000000000000000000081f5d98ea5acf65640ce8bb68aa8449b7c304c500000000000000000000000003c53fae231ad3c0408a8b6d33138bbff1caec33000000000000000000000000000000000000000000000d3c21bcecceda100000000000000000000000000000000000000000000000000000000000000000000a000000000000000000000000000000000000000000000000000000000000001e000000000000000000000000038eeb52f0771140d10c4e9a9a72349a329fe8a6a0000000000000000000000000000000000000000000001a269a61ef8ed1b10e200000000000000000000000038eeb52f0771140d10c4e9a9a72349a329fe8a6a000000000000000000000000000000000000000000000000000000000000000000000000000000000000000000000000000000000000000000000000000000a000000000000000000000000000000000000000000000000000000000000000000000000000000000000000000000000000000000000000000000000000000000000000000000000000000000000000000000000000000000000000000000008000000000000000000000000000000000000000000000000000000000000000000000000000000000000000000000000000000000000000000000000000000000000000000000000000000000000000000000c9b3e2c3ec88b1b4c0cd853f4321000000000000000000000000000000000000000000000000000000000000000000000000000000000000000000000000000000000000000000000000000000a000000000000000000000000000000000000000000000000000000000000000c0000000000000000000000000000000000000000000000000000000000000038000000000000000000000000000000000000000000000000000000000000000000000000000000000000000000000000000000000000000000000000000000001000000000000000000000000000000000000000000000000000000000000002000000000000000000000000000000000000000000000000000000000000000600000000000000000000000000000000000000000000000000000000000000200000000000000000000000000000000000000000000000114e3a20f9d445eb3312d8fa75b0ca364a26720c42f4357d471df2d782c78cec8b10573254e270dd13d000000000000000000000000000000000000000000000000000000006a26f8a70000000000000000000000000000000000000000000000000000000000000000000000000000000000000000000000000000000000000000000000000000000100000000000000000000000038eeb52f0771140d10c4e9a9a72349a329fe8a6a0000000000000000000000004864dcfa317b29e13e6caa04b5c37f24c79a465e000000000000000000000000bcd1a4bb6b0147bb5c02ee15f23f2f5a199cdf1a000000000000000000000000bcd1a4bb6b0147bb5c02ee15f23f2f5a199cdf1a000000000000000000000000000000000000000000000114e3a20f9d445eb3310000000000000000000000000000000000000000000000000487d211c82a9f380000000000000000000000000000000000000000000000000c7d713b49da0000000000000000000000000000000000000000000000000000000000000000018000000000000000000000000000000000000000000000000000000000000000000000000000000000000000000000000000000000000000000000000000000041c6fc117e37bfba66262e295edf1fc7c600b236600dcd4beac94fa9abc8e223a4733c30ecfd7dd6cacf64ba5aed570d9a79c357b895082f609055e351dc08d8e31b000000000000000000000000000000000000000000000000000000000000000000000000000000000000000000000000000000000000000000000000000000",
          "operation": 0,
          "gasToken": "0x0000000000000000000000000000000000000000",
          "safeTxGas": 0,
          "baseGas": 0,
          "gasPrice": "0",
          "refundReceiver": "0x0000000000000000000000000000000000000000",
          "nonce": 280,
          "executionDate": null,
          "submissionDate": "2026-06-03T17:18:34.609009Z",
          "modified": "2026-06-03T17:18:34.646971Z",
          "blockNumber": null,
          "transactionHash": null,
          "safeTxHash": "0x6ab0c0a9af9986a454fbc9e030f37dd87c6a8d03d022db247b789d5daea88565",
          "proposer": "0xb99D885642AeA5558d51328cC99123f0929b83Bc",
          "proposedByDelegate": null,
          "executor": null,
          "isExecuted": false,
          "isSuccessful": null,
          "ethGasPrice": null,
          "maxFeePerGas": null,
          "maxPriorityFeePerGas": null,
          "gasUsed": null,
          "fee": null,
          "payment": null,
          "origin": "{\"url\": \"https://app.pendle.finance\", \"name\": \"Pendle Finance\", \"note\": null}",
          "dataDecoded": {
            "method": "fallback",
            "parameters": []
          },
          "confirmationsRequired": 2,
          "confirmations": [
            {
              "owner": "0xb99D885642AeA5558d51328cC99123f0929b83Bc",
              "submissionDate": "2026-06-03T17:18:34.646971Z",
              "transactionHash": null,
              "signature": "0x2e0600cca9e1990d0df03c67a42b1da23ab770d6ca48aa45e669023411f2261522995f0d0ae21fe4c043459b88f95ace20f759407618ed67cbb8f8cb207426d01b",
              "signatureType": "EOA"
            }
          ],
          "trusted": true,
          "signatures": null
        },
        {
          "safe": "0x81F5d98eA5aCf65640ce8bB68aa8449b7c304c50",
          "to": "0x888888888889758F76e7103c6CbF23ABbF58F946",
          "value": "0",
          "data": "0x05eb532700000000000000000000000081f5d98ea5acf65640ce8bb68aa8449b7c304c500000000000000000000000003c53fae231ad3c0408a8b6d33138bbff1caec33000000000000000000000000000000000000000000000d3c21bcecceda100000000000000000000000000000000000000000000000000000000000000000000a000000000000000000000000000000000000000000000000000000000000001e000000000000000000000000038eeb52f0771140d10c4e9a9a72349a329fe8a6a00000000000000000000000000000000000000000000019778f05e467a931b9a00000000000000000000000038eeb52f0771140d10c4e9a9a72349a329fe8a6a000000000000000000000000000000000000000000000000000000000000000000000000000000000000000000000000000000000000000000000000000000a000000000000000000000000000000000000000000000000000000000000000000000000000000000000000000000000000000000000000000000000000000000000000000000000000000000000000000000000000000000000000000000008000000000000000000000000000000000000000000000000000000000000000000000000000000000000000000000000000000000000000000000000000000000000000000000000000000000000000000000c9b3e2c3ec88b1b4c0cd853f4321000000000000000000000000000000000000000000000000000000000000000000000000000000000000000000000000000000000000000000000000000000a000000000000000000000000000000000000000000000000000000000000003600000000000000000000000000000000000000000000000000000000000000380000000000000000000000000000000000000000000000000000000000000000100000000000000000000000000000000000000000000000000000000000000200000000000000000000000000000000000000000000000000000000000000060000000000000000000000000000000000000000000000000000000000000020000000000000000000000000000000000000000000000018ff1cac1c57723ff6c25dbc8eda9bfa23b498537410c909cadf9c878ec73513613e1387563169ae144000000000000000000000000000000000000000000000000000000006a2053a50000000000000000000000000000000000000000000000000000000000000000000000000000000000000000000000000000000000000000000000000000000200000000000000000000000038eeb52f0771140d10c4e9a9a72349a329fe8a6a0000000000000000000000004864dcfa317b29e13e6caa04b5c37f24c79a465e000000000000000000000000a166323f03cd0dae70487d551d3b457c3151bee4000000000000000000000000a166323f03cd0dae70487d551d3b457c3151bee4000000000000000000000000000000000000000000000b7ffa9e6a4b074c841200000000000000000000000000000000000000000000000003c9c401f44bb5e00000000000000000000000000000000000000000000000000c7d713b49da00000000000000000000000000000000000000000000000000000000000000000180000000000000000000000000000000000000000000000000000000000000000000000000000000000000000000000000000000000000000000000000000000411fdda9ffcd182896076dc59af5560da0a40afa4ad9fe888f0dd1dd5b1cd727d11f1411e3b8a2a11b54d9813c6b664ca5ec29bf26a1e18aed324b74a259cc1ea61c0000000000000000000000000000000000000000000000000000000000000000000000000000000000000000000000000000000000000000000000000000000000000000000000000000000000000000000000000000000000000000000000",
          "operation": 0,
          "gasToken": "0x0000000000000000000000000000000000000000",
          "safeTxGas": 0,
          "baseGas": 0,
          "gasPrice": "0",
          "refundReceiver": "0x0000000000000000000000000000000000000000",
          "nonce": 279,
          "executionDate": null,
          "submissionDate": "2026-06-03T16:13:33.897333Z",
          "modified": "2026-06-03T16:20:42.810929Z",
          "blockNumber": null,
          "transactionHash": null,
          "safeTxHash": "0xe2f7cb3ed368a12c0b490c5f4357e8914144392db9fbf1610c1253ec212d6c95",
          "proposer": "0xb99D885642AeA5558d51328cC99123f0929b83Bc",
          "proposedByDelegate": null,
          "executor": null,
          "isExecuted": false,
          "isSuccessful": null,
          "ethGasPrice": null,
          "maxFeePerGas": null,
          "maxPriorityFeePerGas": null,
          "gasUsed": null,
          "fee": null,
          "payment": null,
          "origin": "{\"url\": \"https://app.pendle.finance\", \"name\": \"Pendle Finance\", \"note\": null}",
          "dataDecoded": {
            "method": "fallback",
            "parameters": []
          },
          "confirmationsRequired": 2,
          "confirmations": [
            {
              "owner": "0xb99D885642AeA5558d51328cC99123f0929b83Bc",
              "submissionDate": "2026-06-03T16:13:33.963492Z",
              "transactionHash": null,
              "signature": "0x7be5eb1b5e3a2b7a12227718e6ed7e6d8e168ca9dafa50d4c30de0cc461722eb1d17ec01f3cdbce7abf7a9342506c027e9bc76823140ba0196cee20cd9c9fc681c",
              "signatureType": "EOA"
            },
            {
              "owner": "0x0E8387f83a43385Fa1E383332B34f934D919a1BD",
              "submissionDate": "2026-06-03T16:20:42.810929Z",
              "transactionHash": null,
              "signature": "0xa82db8052e3c8f755815659c0b49ebf6626dc9ea27d9134d61fa043776dbc56c679c7688e0a44d91f4c6d87cfd77b5d8152936538d7f68fff5024a003cc223381b",
              "signatureType": "EOA"
            }
          ],
          "trusted": true,
          "signatures": null
        },
        {
          "safe": "0x81F5d98eA5aCf65640ce8bB68aa8449b7c304c50",
          "to": "0x888888888889758F76e7103c6CbF23ABbF58F946",
          "value": "0",
          "data": "0xed48907e00000000000000000000000081f5d98ea5acf65640ce8bb68aa8449b7c304c50000000000000000000000000c5f938a8ef5f3bf9e72f5aa094baf5e03f4727d300000000000000000000000000000000000000000000197ebbcbcac37c645cd200000000000000000000000000000000000000000000059c231bdd88056a0750000000000000000000000000000000000000000000001829f50935c6a3e1d3d4000000000000000000000000000000000000000000000b384637bb100ad40ea0000000000000000000000000000000000000000000000000000000000000001e000000000000000000000000000000000000000000000000000000e8d4a510000000000000000000000000000000000000000000000000000000000000000140000000000000000000000000000000000000000000000000000000000000028000000000000000000000000038eeb52f0771140d10c4e9a9a72349a329fe8a6a00000000000000000000000000000000000000000000010f0cf064dd5920000000000000000000000000000038eeb52f0771140d10c4e9a9a72349a329fe8a6a000000000000000000000000000000000000000000000000000000000000000000000000000000000000000000000000000000000000000000000000000000a000000000000000000000000000000000000000000000000000000000000000000000000000000000000000000000000000000000000000000000000000000000000000000000000000000000000000000000000000000000000000000000008000000000000000000000000000000000000000000000000000000000000000000000000000000000000000000000000000000000000000000000000000000000000000000000000000000000000000000000c9b3e2c3ec88b1b4c0cd853f4321000000000000000000000000000000000000000000000000000000000000000000000000000000000000000000000000000000000000000000000000000000a0000000000000000000000000000000000000000000000000000000000000036000000000000000000000000000000000000000000000000000000000000010a0000000000000000000000000000000000000000000000000000000000000000100000000000000000000000000000000000000000000000000000000000000200000000000000000000000000000000000000000000000000000000000000060000000000000000000000000000000000000000000000000000000000000020000000000000000000000000000000000000000000000035be3e1ed46136ccab610223bc6cbcec205d4d84826fd7c9bc5e7fc07707365cfd368416b637bd54a20000000000000000000000000000000000000000000000000000000006a10a2a00000000000000000000000000000000000000000000000000000000000000000000000000000000000000000000000000000000000000000000000000000000300000000000000000000000038eeb52f0771140d10c4e9a9a72349a329fe8a6a00000000000000000000000085cc1b74fc95abb6b9b6060c56334ba3e4b88ed4000000000000000000000000a166323f03cd0dae70487d551d3b457c3151bee4000000000000000000000000a166323f03cd0dae70487d551d3b457c3151bee400000000000000000000000000000000000000000000035be3e1ed46136ccab600000000000000000000000000000000000000000000000001b3f27d343f8d700000000000000000000000000000000000000000000000000c7d713b49da00000000000000000000000000000000000000000000000000000000000000000180000000000000000000000000000000000000000000000000000000000000000000000000000000000000000000000000000000000000000000000000000000413c6e8778cda10b6a707e541eabe779eb0e22bbe462a3700abd30a6421dcd9fcd1caa9aaa24d0e8b0706909b2f97f0889caceee140ecf804974374668d5f8aaf61c00000000000000000000000000000000000000000000000000000000000000000000000000000000000000000000000000000000000000000000000000000500000000000000000000000000000000000000000000000000000000000000a0000000000000000000000000000000000000000000000000000000000000032000000000000000000000000000000000000000000000000000000000000005a000000000000000000000000000000000000000000000000000000000000008200000000000000000000000000000000000000000000000000000000000000aa0000000000000000000000000000000000000000000000000000000000000006000000000000000000000000000000000000000000000000000000000000002000000000000000000000000000000000000000000000000225eeb1de171b4f4402f9fbc8fae03b1f8c261353b940ca62e877f8d6e92f846cd8166d59ae64c944b000000000000000000000000000000000000000000000000000000006a10a2a00000000000000000000000000000000000000000000000000000000000000000000000000000000000000000000000000000000000000000000000000000000000000000000000000000000038eeb52f0771140d10c4e9a9a72349a329fe8a6a00000000000000000000000085cc1b74fc95abb6b9b6060c56334ba3e4b88ed4000000000000000000000000a166323f03cd0dae70487d551d3b457c3151bee4000000000000000000000000a166323f03cd0dae70487d551d3b457c3151bee40000000000000000000000000000000000000000000000225eeb1de171b4f44000000000000000000000000000000000000000000000000001b3f27d343f8d700000000000000000000000000000000000000000000000000c7d713b49da0000000000000000000000000000000000000000000000000000000000000000018000000000000000000000000000000000000000000000000000000000000000000000000000000000000000000000000000000000000000000000000000000041b5a41c002cb538657670256ad9493f931e14ef2412b14c2db6584afd08dfe5be4421d5aa4a99e2d218dd5167caea92022a53a4347b12c47cb9b3fed1050106761b000000000000000000000000000000000000000000000000000000000000000000000000000000000000000000000000000000000000000000000000000060000000000000000000000000000000000000000000000000000000000000020000000000000000000000000000000000000000000000010f0cf064dd592000002146a65d656dbec2f57043ca00b5d7fa010596214c1f1309cc99e9eb889edb9a000000000000000000000000000000000000000000000000000000006a145e850000000000000000000000000000000000000000000000000000000000000000000000000000000000000000000000000000000000000000000000000000000000000000000000000000000038eeb52f0771140d10c4e9a9a72349a329fe8a6a00000000000000000000000085cc1b74fc95abb6b9b6060c56334ba3e4b88ed40000000000000000000000003fe304fcdb058c7c4558bc4c26fc0c058ba243920000000000000000000000003fe304fcdb058c7c4558bc4c26fc0c058ba2439200000000000000000000000000000000000000000000010f0cf064dd5920000000000000000000000000000000000000000000000000000001b558cbcb3dbeaa0000000000000000000000000000000000000000000000000c7d713b49da0000000000000000000000000000000000000000000000000000000000000000018000000000000000000000000000000000000000000000000000000000000000000000000000000000000000000000000000000000000000000000000000000041b8f5c02fb38c44d59b8f59ff5f52917dbb4e072dadfaa4a0529e512b8aea532c0195e0c300382a16dd92da2501a447149235bd6000beb1a879a873fd1fdcb1021c00000000000000000000000000000000000000000000000000000000000000000000000000000000000000000000000000000000000000000000000000006000000000000000000000000000000000000000000000000000000000000002000000000000000000000000000000000000000000000000f2144307d3f6591a3407aecc51a489ff196aa30c3676b5b73a86e9dcedb67f19cba4773982f5891e97000000000000000000000000000000000000000000000000000000006a1119f10000000000000000000000000000000000000000000000000000000000000000000000000000000000000000000000000000000000000000000000000000000000000000000000000000000038eeb52f0771140d10c4e9a9a72349a329fe8a6a00000000000000000000000085cc1b74fc95abb6b9b6060c56334ba3e4b88ed40000000000000000000000009c80a96a06cb6f7943a462dde7ac215011fa8ace0000000000000000000000009c80a96a06cb6f7943a462dde7ac215011fa8ace0000000000000000000000000000000000000000000000f2144307d3f6591a3400000000000000000000000000000000000000000000000001b558cbcb3dbeaa0000000000000000000000000000000000000000000000000c7d713b49da00000000000000000000000000000000000000000000000000000000000000000180000000000000000000000000000000000000000000000000000000000000000000000000000000000000000000000000000000000000000000000000000000414812c9a8964c398f36a8924d5c00fd6f3785e022dffa1d01ea34787260e8afc907a749c9794e28220ed304f693513508173e46622c583ebd541aa1ce98fb16301b000000000000000000000000000000000000000000000000000000000000000000000000000000000000000000000000000000000000000000000000000060000000000000000000000000000000000000000000000000000000000000020000000000000000000000000000000000000000000000043c3392e8bbc56144292d15ccc155e59c660547d922e7d7133347afad18b66bb5dc8aa102366f5b0c8d000000000000000000000000000000000000000000000000000000006a11d33b0000000000000000000000000000000000000000000000000000000000000001000000000000000000000000000000000000000000000000000000000000000000000000000000000000000098a878b1cd98131b271883b390f68d2c9067466500000000000000000000000085cc1b74fc95abb6b9b6060c56334ba3e4b88ed4000000000000000000000000b3a9a9658ac09ec185c161786e3cbb802de4ccb5000000000000000000000000b3a9a9658ac09ec185c161786e3cbb802de4ccb500000000000000000000000000000000000000000000043c3392e8bbc561442900000000000000000000000000000000000000000000000001abe92358a63e6b000000000000000000000000000000000000000000000000091f88fd51676f500000000000000000000000000000000000000000000000000000000000000180000000000000000000000000000000000000000000000000000000000000000000000000000000000000000000000000000000000000000000000000000000419e795394a268371968e6ea254c1f6921898401fa426fc19a71bdea0c49800d5d094611487bc57ce6a5041fe6c4f0db4829fce70fdcfe5a065020148ffad6b1e61b000000000000000000000000000000000000000000000000000000000000000000000000000000000000000000000000000000000000000000000000000060000000000000000000000000000000000000000000000000000000000000020000000000000000000000000000000000000000000000032cfe2bc7254698b15d087cb5c02a0ffe95ebafbd96b955a51f06e82f76b4a335b5a1a0104da44b0385000000000000000000000000000000000000000000000000000000006a13ebc50000000000000000000000000000000000000000000000000000000000000000000000000000000000000000000000000000000000000000000000000000000000000000000000000000000098a878b1cd98131b271883b390f68d2c9067466500000000000000000000000085cc1b74fc95abb6b9b6060c56334ba3e4b88ed40000000000000000000000003fe304fcdb058c7c4558bc4c26fc0c058ba243920000000000000000000000003fe304fcdb058c7c4558bc4c26fc0c058ba2439200000000000000000000000000000000000000000000032cfe2bc7254698b15d00000000000000000000000000000000000000000000000001d18182ac453854000000000000000000000000000000000000000000000000091fc4b3b6c24218000000000000000000000000000000000000000000000000000000000000018000000000000000000000000000000000000000000000000000000000000000000000000000000000000000000000000000000000000000000000000000000041d571a90cc93ccb559d25ff83f11f8a5e63ea2e0ecbf8b1f2216f5d2d88b2f4f5076bca830df09a6a1427c31005315f4722e77f3a569f1f621f48219045bf8d901c000000000000000000000000000000000000000000000000000000000000000000000000000000000000000000000000000000000000000000000000000000",
          "operation": 0,
          "gasToken": "0x0000000000000000000000000000000000000000",
          "safeTxGas": 0,
          "baseGas": 0,
          "gasPrice": "0",
          "refundReceiver": "0x0000000000000000000000000000000000000000",
          "nonce": 245,
          "executionDate": null,
          "submissionDate": "2026-05-22T19:09:45.009819Z",
          "modified": "2026-05-22T19:11:35.789092Z",
          "blockNumber": null,
          "transactionHash": null,
          "safeTxHash": "0x3972c77d0315d5d00405b5c4e9030fd9e09f2c5369ff521876bd000b3cf83197",
          "proposer": "0xb99D885642AeA5558d51328cC99123f0929b83Bc",
          "proposedByDelegate": null,
          "executor": null,
          "isExecuted": false,
          "isSuccessful": null,
          "ethGasPrice": null,
          "maxFeePerGas": null,
          "maxPriorityFeePerGas": null,
          "gasUsed": null,
          "fee": null,
          "payment": null,
          "origin": "{\"url\": \"https://app.pendle.finance\", \"name\": \"Pendle Finance\", \"note\": null}",
          "dataDecoded": {
            "method": "fallback",
            "parameters": []
          },
          "confirmationsRequired": 2,
          "confirmations": [
            {
              "owner": "0xb99D885642AeA5558d51328cC99123f0929b83Bc",
              "submissionDate": "2026-05-22T19:09:45.040011Z",
              "transactionHash": null,
              "signature": "0xa754d90c05bda2efcc60438c4159aebfe93822eaa0208ba7f050de7fa6f1ed85733699b781178122ca51c84e9cf87e2fb7def65a56c88b25d7ab64bad256e0741c",
              "signatureType": "EOA"
            },
            {
              "owner": "0x3d826a5e0e1f93dc6d66293AdD02985c54E5aDF8",
              "submissionDate": "2026-05-22T19:11:35.789092Z",
              "transactionHash": null,
              "signature": "0xff90641b4bdb64af34fdbf190f76c349bb916bb8b6ccef0add743d271ae7bd9a04e8ce92593185325035543ceb6b30e4292a05cea2a3ef424446a49c4888c38f1b",
              "signatureType": "EOA"
            }
          ],
          "trusted": true,
          "signatures": null
        }
      ]
    }
  }
}